:020000040800F2
:1000000060040020CD050008390100083B0100080C
:100010003F010008430100084701000800000000FC
:100020000000000000000000000000004B0100087C
:100030004D010008000000004F01000859030008AE
:10004000E7050008E7050008E7050008E7050008E0
:10005000E7050008E7050008E7050008E7050008D0
:10006000E7050008E7050008E7050008E7050008C0
:10007000E7050008E7050008E7050008E7050008B0
:10008000E7050008E7050008E7050008E7050008A0
:10009000E7050008E7050008E7050008E705000890
:1000A000E7050008E7050008E7050008E705000880
:1000B00051010008E70500086B010008E70500088A
:1000C000E7050008E7050008E7050008E705000860
:1000D000E70500088D010008E70500084D0200084B
:1000E000E7050008E7050008E7050008DFF80CD081
:1000F00002F028FF004800470101000860040020CA
:1001000000F03AFB00F05AFB00F0D0FD00F0EEFDED
:1001100000F04DFD00F070FE00F091FF0BE000F0EC
:10012000DDFD4FF4FA7000F07AFB00F0B9FD4FF4FA
:10013000FA7000F074FBF2E7704700BFFEE700BF03
:10014000FEE700BFFEE700BFFEE77047704770475D
:1001500010B50121880702F0A8F928B1012188070C
:1001600002F0B4F900F0D2FE10BD10B501217B48B9
:1001700002F09BF948B10121784802F0A7F9012269
:1001800040F22551764801F06EF910BD70B540F28D
:100190002551734801F04CFA002856D0704801F000
:1001A000C7F9C4B2422C05D100206E490880012055
:1001B0006D4908706C480078012846D1694800886C
:1001C000012804D00C2805D00D2809D105E0674886
:1001D000047006E06548447003E06448847000E001
:1001E00000BF00BF5F480088401C5E490880084689
:1001F00000880E2829DB5D4800784D2825D1002095
:100200005949087057490880002240F22551544846
:1002100001F029F9554880785449497800EB0120CC
:1002200053490870084600785249087050480178D0
:1002300051A002F0B9FE002505E05349485D00F0E9
:100240008DFA681CC5B2052DF7DB70BD70B540F2A4
:1002500025514E4801F0ECF900287CD04B4801F0C4
:1002600067F9C4B2A52C05D10020494908700120C6
:10027000484908704748007801286CD14448007804
:10028000012804D0042805D0052809D105E04248FA
:10029000047006E04048447003E03F48847000E08A
:1002A00000BF00BF3A480078401C39490870084632
:1002B000007806284FDB384800785A284BD10020B8
:1002C0003449087032490870334880783249497897
:1002D00000EB012000EBC00101EB00104FF6FF71B5
:1002E00001EA80002D4908800846007821494870BD
:1002F0002A4801882AA002F057FE00F03CFD2C4954
:10030000088000F038FD054629462AA002F04CFE80
:100310002748008800121749887025480078C8705F
:1003200000F03DFD274908800846018826A002F01C
:100330003BFE2448008800120E49087121480078CD
:100340004871FF208871084600F008FF05462946DD
:1003500022A002F029FE70BD704700000008004096
:10036000003801401400002012000020010000208D
:10037000000000203E00002056616C75655F506DE6
:10038000322E352025640900060000200048004078
:1003900017000020160000200B00002004000020A1
:1003A00056616C75655F4863686F202564090000BD
:1003B0000E00002056616C75655F48756D6964209C
:1003C000256409001000002056616C75655F546556
:1003D0006D7065722025640A00000000CAFDBEDD54
:1003E000B7A2CBCDA3BA2530780A00000CB5002007
:1003F000019000906C48006840F480306A490860C1
:1004000000BF6948006800F4003000900198401C6B
:100410000190009818B90198B0F5A06FF1D1624829
:10042000006800F4003010B10120009001E00020CD
:1004300000900098012843D15C48006840F010000B
:100440005A4908600846006820F003000860084622
:10045000006840F002000860534840685249486014
:100460000846406848600846406840F4806048603C
:100470000846406820F47C1048600846406840F414
:10048000E81048600846006840F08070086000BFCF
:100490004548006800F000700028F9D042484068E4
:1004A00020F00300404948600846406840F00200E0
:1004B000486000BF3C48406800F00C000828F9D1B3
:1004C0000CBD10B5FFF792FF10BD10B5364800689F
:1004D00040F001003449086008464068344908404B
:1004E0003149486008460068324908402E49086092
:1004F0000846006820F4802008600846406820F420
:10050000FE0048604FF41F008860FFF7DAFF4FF0ED
:1005100000602949086010BD10B5002100200022AC
:10052000214B5B6803F00C0121B1042906D0082996
:1005300028D107E0214B224C236027E01F4B204CA1
:10054000236023E0184B5B6803F47010164B5B6864
:1005500003F48032022303EB904022B9194B43434A
:10056000174C23600DE0104B5B6803F4003323B19C
:10057000144B4343124C236003E0104B4343104C95
:10058000236003E00D4B0E4C236000BF00BF064B01
:100590005B68C3F303130C4CE15C094B1B68CB4055
:1005A000074C236010BD00000010024000200240F4
:1005B0000000FFF8FFFFF6FE08ED00E000127A00F1
:1005C0001800002000093D001C000020064880475C
:1005D00006480047FEE7FEE7FEE7FEE7FEE7FEE728
:1005E000FEE7FEE7FEE7FEE7CB040008ED000008AB
:1005F00008B50121042002F061FA0121084602F049
:100600005DFA0121880302F059FA4FF40070ADF849
:10061000000018208DF8030003208DF802006946C1
:10062000614802F00FFB4FF48060ADF80000042039
:100630008DF8030069465C4802F004FB01210820A4
:1006400002F03CFA0121880402F045FA0121084633
:1006500002F034FA4FF48060ADF8000018208DF8F5
:10066000030003208DF802006946504802F0EAFAC0
:100670004FF40060ADF8000004208DF803006946D7
:100680004A4802F0DFFA08BD1FB54FF4165000903B
:100690000020ADF80400ADF80600ADF80800ADF894
:1006A0000C000C20ADF80A006946414800F043FEFA
:1006B00001213F4800F0CBFE40213D4800F0AFFF54
:1006C0004FF4165000900020ADF80400ADF806007D
:1006D000ADF80800ADF80C000C20ADF80A00694632
:1006E000344800F028FE012240F22551314800F044
:1006F000BAFE01212F4800F0AAFE40212D4800F04B
:100700008EFF1FBD08B525208DF8000000208DF854
:1007100001008DF8020001208DF80300684600F00A
:100720005EFD27208DF8000000208DF801000120DB
:100730008DF802008DF80300684600F050FD08BDFA
:1007400010B5044621461C4800F0EEFE00BF802193
:10075000194800F057FF0028F9D010BD10B5044625
:100760002146144800F0E0FE00BF8021114800F04F
:1007700049FF0028F9D010BD10B5FFF739FFFFF78A
:1007800083FFFFF7BFFF10BD70B504460D46E1B211
:10079000074800F0C9FE00BF8021054800F032FF85
:1007A0000028F9D0204670BD00080140000C01402F
:1007B00000380140004800400044004010B56FF090
:1007C000040000F056FD092023490870084600780F
:1007D00000EB4001C1EBC0104FF6FF7101EAC00011
:1007E0001E49088010BD01461B4A12784A434FF04B
:1007F000E0235A6100229A6101221A6100BF4FF082
:10080000E022106900F001021AB100F48032002ADF
:10081000F5D000224FF0E0231A619A61704701463B
:100820000E4A12884A434FF0E0235A6100229A612F
:1008300001221A6100BF4FF0E022106900F00102AE
:100840001AB100F48032002AF5D000224FF0E023E4
:100850001A619A61704700002C0000202E000020D1
:1008600008B50121042002F029F90220ADF80000AA
:1008700048208DF8030002208DF802006946834865
:1008800002F0E0F908BD08B50121042002F016F9D4
:100890000220ADF8000010208DF8030002208DF832
:1008A00002006946794802F0CDF908BD08B501217A
:1008B000042002F003F91220ADF8000010208DF89A
:1008C000030002208DF802006946704802F0BAF970
:1008D00001206F4908606F49C1F8840108BD10B557
:1008E000FFF7D1FF01206A490C3908606949C1F856
:1008F00090010420FFF777FF002065490C3908605C
:100900000420FFF770FF00206249C1F89001042025
:10091000FFF769FF10BD10B5FFF7B5FF00205C4978
:1009200008605C49C1F884010420FFF75CFF0120E6
:10093000574908600420FFF756FF01205549C1F8C8
:1009400084010420FFF74FFF10BD10B50024FFF70E
:1009500087FF0420FFF747FF01204D49086004206E
:10096000FFF741FF0AE0601CC4B2FA2C03DDFFF779
:10097000D2FF012010BD0120FFF735FF44488C381D
:1009800000680028EFD1424908603220FFF72BFFB2
:100990000020EFE710B500203D490860FFF773FF26
:1009A00000203C49C1F884010520FFF71CFF01200D
:1009B000374908600520FFF716FF00203549C1F8C8
:1009C000900110BD10B5002031490860FFF75BFFB2
:1009D00001203049C1F884010520FFF704FF012000
:1009E0002B4908600520FFF7FEFE00202949C1F8C9
:1009F000900110BD70B50446FFF745FF0020244963
:100A00000860002517E0E00921490C3908606006FC
:100A1000040E0220FFF7E7FE01201E49C1F89001F5
:100A20000220FFF7E0FE0020194908600220FFF7CE
:100A3000DAFE681CC5B2082DE5DB70BD70B5054651
:100A40000024FFF70DFF002616E000201049086083
:100A50003220FFF7C8FE01200E49C1F89001322074
:100A6000FFF7C1FE6006040E09488C38006808B123
:100A7000601CC4B2701CC6B2082EE6DB15B9FFF7C5
:100A8000A1FF01E0FFF786FF204670BD000801408E
:100A900090012142000021427FB541F61F45092403
:100AA0000121084602F017F8ADF80850ADF80440EF
:100AB0000020ADF80A00ADF8060001A9A00700F07B
:100AC000CFFE01221146900701F041FA1C208DF85B
:100AD000000000208DF8010002208DF802000120A6
:100AE0008DF80300684600F07AFB0121880701F0C9
:100AF00013FA7FBD7FB541F61F450924012102206D
:100B000001F0E9FFADF80850ADF804400020ADF861
:100B10000A00ADF8060001A9284800F0A1FE012254
:100B20001146264801F013FA1D208DF80000002020
:100B30008DF8010002208DF8020001208DF80300DD
:100B4000684600F04CFB01211C4801F0E5F97FBD2F
:100B50007FB541F61F4546F2A7140121042001F09C
:100B6000BAFFADF80850ADF804400020ADF80A0017
:100B7000ADF8060001A9124800F072FE01221146EC
:100B80000F4801F0E4F91E208DF8000000208DF8D8
:100B9000010002208DF8020001208DF80300684654
:100BA00000F01DFB0121064801F0B6F97FBD10B52C
:100BB000FFF772FFFFF7CCFF10BD000000040040FC
:100BC0000008004070B50546002405E0601CC4B272
:100BD000C82C01DD002070BD02212F4801F0C9FDA5
:100BE0000028F3D029462C4801F070FD002405E0D0
:100BF000601CC4B2C82C01DD0020ECE701212648AE
:100C000001F0B7FD0028F3D0234801F061FDC0B228
:100C1000E1E700B587B0012141F2040001F04EFF89
:100C2000E020ADF8180018208DF81B0003208DF887
:100C30001A0006A9194802F005F8E021174802F049
:100C4000AEF80020ADF804004FF48270ADF8060055
:100C50000020ADF80800ADF80A00ADF80C004FF424
:100C60000070ADF80E003820ADF810000020ADF88F
:100C700012000720ADF814001020ADF8100001A9F3
:100C8000054801F04DFC0121034801F0EEFCFF2076
:100C9000FFF798FF07B000BD003001400008014099
:100CA00010B50221104802F07CF810BD08B50121F2
:100CB000082001F003FF03208DF8020010208DF8BA
:100CC000030003208DF802000220ADF80000694601
:100CD000054801F0B7FFFFF7E3FF08BD10B502219B
:100CE000014802F05CF810BD000C014010B5FFF7A0
:100CF000DDFD10BD10B5FFF7F2FDB820FFF77AFE5D
:100D0000FFF723FE0020FFF775FEFFF71EFEFFF73B
:100D1000E6FDB920FFF76EFEFFF717FE002406E0A0
:100D20000120FFF78BFE32490855601CC4B2042C29
:100D3000F6DB0020FFF782FE2D490855FFF7EBFD9B
:100D400010BD10B5FFF7D6FF29480078284949782B
:100D500008442749897808442549C9780844244922
:100D60000979884203D1FF202249087002E000205F
:100D70002049087010BD10B5FFF7E3FF1D4800784B
:100D800058B11B4840781A49097801EB810100EB02
:100D90004100C83884B2204610BD0020FCE7154849
:100DA000007818B31248C07800F0800068B110488D
:100DB000C07800F07F000E4A927802EB820200EBCE
:100DC0004200C0F1C80081B20BE00948C07800F0D1
:100DD0007F00074A927802EB820200EB420000F1AA
:100DE000C8010020034A1070084670470020FCE745
:100DF000300000203500002008B50121102001F04E
:100E00005DFE03208DF8020048208DF803004FF4AA
:100E10000050ADF800006946454801F013FF08BDD9
:100E200010B544A002F0C0F810BD10B549A002F002
:100E3000BBF810BD70B5002400254E480078401C5A
:100E40004C490870084600781E2804DB0020087012
:100E500001204949087048480078012854D10020F1
:100E6000454908704FF40051314801F07EFF08B940
:100E7000012000E0002004464048007830B10128FD
:100E80000BD0022815D003283DD134E024B13C48D2
:100E9000048001203949087035E0394800888442CF
:100EA00003D102203549087002E000203349087060
:100EB00029E033480088844207D000202F49087079
:100EC000304908801025284670BD2D48008884428E
:100ED00010D12C480088401C2A4908800846008808
:100EE000642807DB0020088003202449087040257F
:100EF0002846E9E707E022480088844202D0002023
:100F00001E49087000BF00BF0020DDE710B50024B7
:100F1000FFF790FF044604B910BD102C01D1FFF774
:100F20007FFF402C01D1FFF780FF00BFF4E70000F6
:100F3000001001404B455931205052455353205326
:100F4000484F5254202C5769666920526573657466
:100F50000A0000004B455932205052455353204C53
:100F60004F4E47202C4169724C696E6B206D6F6447
:100F7000650A0000360000203700002038000020FD
:100F80003C0000203A00002070B505460C460020C9
:100F9000894908602846FFF715FE06462046FFF7F8
:100FA00011FE01208549C1F8A401304670BD2DE92C
:100FB000F04107460C46154600207F490860384638
:100FC000FFF700FE8046002605E014F8010BFFF74E
:100FD000F9FD701CC6B2AE42F7DB0120764908600D
:100FE0004046BDE8F08110B500207349091F086034
:100FF000052273493020FFF7DAFF052271492A20C4
:10100000FFF7D5FF01212120FFF7BEFF012122209C
:10101000FFF7BAFF1A212420FFF7B6FF2821252069
:10102000FFF7B2FF0F212620FFF7AEFF0E21202091
:10103000FFF7AAFF01206149C1F8A00110BD08B562
:101040000121082001F03AFD4FF48070ADF8000056
:1010500010208DF8030003208DF8020069465A48DD
:1010600001F0F0FD4FF40070ADF8000010208DF895
:10107000030003208DF802006946534801F0E2FDA9
:101080004020ADF8000048208DF8030003208DF8C3
:10109000020069464C4801F0D5FD4FF450714A48B2
:1010A00001F07DFEFFF7B5FD00204349091F0860F0
:1010B00001204249C1F8A401FFF795FF08BD2DE9C1
:1010C000F04107460D46164600203B490860384669
:1010D000FFF778FD8046002405E0FF20FFF772FD52
:1010E0002855601CC4B2B442F7DB012032490860C5
:1010F0004046BDE8F0811CB534A103C9CDE900012B
:10110000052269463020FFF752FF0522694610206C
:10111000FFF7D5FF002406E01DF80400A52800D045
:1011200003E0601CC4B2052CF6DB00BF052C01D027
:1011300001201CBD0020FCE770B5044600201E49BC
:1011400008602046FFF73EFDFF20FFF73BFD054608
:1011500001201A49C1F8A401284670BD70B50546A2
:1011600000201549091F086007222946A020FFF723
:101170001EFF01201149C1F8A00100BF0E488C38A4
:1011800000680028FAD10720FFF7D6FF0446214661
:101190002720FFF7F9FE04F0100028B1FF21E1201D
:1011A000FFF7F2FE102070BD04F0200008B12020EF
:1011B000F9E7FF20F7E70000A481214200802142E7
:1011C000A8320008AD320008000C0140A5A5A5A575
:1011D000A500000031490143314A1160704770B5E4
:1011E000002100230F22C47804B32D4C246804F49A
:1011F000E064C4F5E064210AC1F10403CA40447804
:1012000004FA03F18478144021430901254C06783F
:10121000A155047804F01F050124AC4005786D1138
:10122000AD0005F1E025C5F8004109E0047804F0BF
:101230001F050124AC401C4D0678761145F8264068
:1012400070BD1A4A0A400243154B1B1F1A607047B3
:1012500039B1134A121D12680243114B1B1D1A604B
:1012600006E00F4A121D126882430D4B1B1D1A60C7
:101270007047042808D14FF0E021096941F00401CA
:101280004FF0E022116107E04FF0E021096921F001
:1012900004014FF0E0221161704700000000FA05E0
:1012A0000CED00E000E400E080E100E080FFFF1FC3
:1012B00010B50446FB48844209D10121880301F09E
:1012C00017FC00214FF4804001F012FC32E0F64898
:1012D000844209D10121480401F017FC00214FF498
:1012E000003001F012FC25E0F048844209D10121D0
:1012F000880401F00AFC00214FF4802001F005FC75
:1013000018E0EB48844209D10121C80401F0FDFB3B
:1013100000214FF4002001F0F8FB0BE0E548844287
:1013200008D10121080501F0F0FB00214FF48010E5
:1013300001F0EBFB10BD2DE9F04786B005460E46E7
:101340000024A24600BFA1460027B08900B100BF1B
:101350002F462C8A4CF6FF700440F08804432C8200
:10136000AC894EF6F3100440B08831890843718986
:1013700008430443AC81AC8A4FF6FF400440B08977
:101380000443AC8201A801F02CFBC648874202D17D
:10139000DDF810A001E0DDF80CA0A88900F4004001
:1013A00040B10AEBCA0000EB0A1031684900B0FBFB
:1013B000F1F807E00AEBCA0000EB0A103168890077
:1013C000B0FBF1F86420B8FBF0F0040120096421BF
:1013D00001FB1089A88900F4004040B1322000EBE5
:1013E000C900B0FBF1F000F00700044308E0322030
:1013F00000EB09106421B0FBF1F000F00F00044392
:101400002C8106B0BDE8F0874FF416510160002131
:101410008180C18001810C2141810021818170473F
:1014200010B502460020108A4FF2FF0318400B88C7
:101430004C8823438C882343CC8823431843108251
:1014400010BD0021018041808180C180704721B1A1
:10145000828942F40052828104E082894DF6FF7352
:101460001A4082817047F0B503460024002600250B
:10147000002040F66A17B94200D100BF1846C1F3F8
:10148000421401F01F06012707FA06F5012C01D1CD
:101490000C3004E0022C01D1103000E014301AB1FD
:1014A00007682F43076002E00768AF430760F0BD9D
:1014B0001AB1838A0B43838202E0838A8B4383823F
:1014C0007047028A4FF6F0731A400282028A0A437A
:1014D0000282704782894FF2FF731A4082818289AB
:1014E0000A438281704721B1828942F002028281DF
:1014F00004E082894FF6FD731A4082817047028AA8
:101500004FF6DF731A400282028A0A430282704752
:1015100021B1028A42F48042028204E0028A4BF640
:10152000FF731A4002827047C1F30802828070473D
:1015300001468888C0F308007047818941F00101A5
:1015400081817047028BD2B20283028B42EA012270
:1015500002837047028B02F47F420283028B0A43AC
:101560000283704721B1828A42F02002828204E025
:10157000828A4FF6DF731A408282704721B1828AD5
:1015800042F01002828204E0828A4FF6EF731A4022
:101590008282704721B1828A42F00802828204E08E
:1015A000828A4FF6F7731A408282704721B182898E
:1015B00042F40042828103E08289C2F30E028281FA
:1015C000704721B1828A42F40062828204E0828AFA
:1015D0004FF2FF731A4082827047828A4FF6FB7384
:1015E0001A408282828A0A438282704721B1828AAB
:1015F00042F00202828204E0828A4FF6FD731A40B2
:101600008282704702460020B1F5007F00D100BF02
:1016100013880B400BB1012000E00020704701F45B
:101620000072B2F5007F00D100BFCA43028070474C
:1016300070B50246002400230025002040F66A16FB
:10164000B14200D100BFC1F3421501F01F030126D2
:1016500006FA03F3012D02D19689334006E0022DEC
:1016600002D1168A334001E0968A33400C120126DB
:1016700006FA04F41688344013B10CB1012000E0DE
:10168000002070BD10B50022002340F66A14A1426C
:1016900000D100BF0A1201249440A3B2DC430480AD
:1016A00010BD0000003801400044004000480040E8
:1016B000004C00400050004010B50446FE488442F3
:1016C00008D10121C01401F013FA0021E01401F047
:1016D0000FFAC4E0B4F1804F08D10121084601F0AF
:1016E00014FA0021012001F010FAB8E0F348844216
:1016F00008D10121022001F008FA0021022001F0A6
:1017000004FAACE0EE48844208D10121042001F043
:10171000FCF90021042001F0F8F9A0E0E948844236
:1017200008D10121082001F0F0F90021082001F082
:10173000ECF994E0E448844208D10121102001F042
:10174000E4F90021102001F0E0F988E0DF4884424C
:1017500008D10121202001F0D8F90021202001F03A
:10176000D4F97CE0DA48844208D10121401401F028
:10177000BFF90021601401F0BBF970E0D548844244
:1017800009D10121C80401F0B3F900214FF4002070
:1017900001F0AEF963E0D048844209D10121080587
:1017A00001F0A6F900214FF4801001F0A1F956E0F4
:1017B000CA48844209D10121480501F099F9002164
:1017C0004FF4001001F094F949E0C548844208D173
:1017D0000121402001F099F90021402001F095F904
:1017E0003DE0C048844208D10121802001F08DF9FC
:1017F0000021802001F089F931E0BB48844208D102
:101800000121801501F081F90021A01501F07DF979
:1018100025E0B648844209D10121080401F068F9A5
:1018200000214FF4803001F063F918E0B0488442A1
:1018300009D10121480401F05BF900214FF4003087
:1018400001F056F90BE0AB48844208D1012188042D
:1018500001F04EF900214FF4802001F049F910BD4C
:1018600000220288944B98420ED0994B98420BD09C
:10187000B0F1804F08D0914B984205D0904B9842E0
:1018800002D0904B984204D14FF68F731A404B8888
:101890001A438D4B984207D08C4B984204D04FF698
:1018A000FF431A40CB881A4302808B8883850B88BC
:1018B0000385814B98420BD0854B984208D08B4BC7
:1018C000984205D08A4B984202D08A4B984201D167
:1018D0000B7A038601238382704770B500240022AF
:1018E0000023058C4FF6FE7635400584028C8388F4
:1018F000048B4FF68F752C40B51E2C400D882C4361
:10190000751E2A400D892A434D882A436A4DA842F4
:101910000BD06F4DA84208D0744DA84205D0744D2D
:10192000A84202D0734DA84213D14FF6F7752A4052
:101930004D892A434FF6FB752A408D882A434FF67E
:10194000FF652B404FF6FF552B408D892B43CD89EA
:101950002B4383800483CD888586028470BD70B557
:10196000002400220023058C4FF6EF7635400584D5
:10197000028C8388048B48F6FF752C404FF6FF4598
:101980002C400D884FF6FF7606EA05252C434FF6CE
:10199000DF752A400D8906EA05152A434D8806EAB7
:1019A00005152A43444DA84202D0494DA8421DD1F5
:1019B0004FF67F752A404D894FF6FF7606EA0515EA
:1019C0002A434FF6BF752A408D8806EA05152A433B
:1019D0004FF6FF352B404FF2FF752B408D8906EAFD
:1019E00085052B43CD8906EA85052B438380048337
:1019F000CD880587028470BD70B5002400220023C5
:101A0000058C4FF6FF6635400584028C8388848BF5
:101A10004FF68F752C404FF6FC752C400D882C43EB
:101A20004FF6FF552A400D894FF6FF7606EA052549
:101A30002A434D8806EA05252A431F4DA84202D0B5
:101A4000234DA8421DD14FF2FF752A404D894FF614
:101A5000FF7606EA05252A434FF6FF352A408D8892
:101A600006EA05252A434EF6FF752B404DF6FF7515
:101A70002B408D8906EA05152B43CD8906EA05150D
:101A80002B4383808483CD888587028470BD70B5A5
:101A9000002200230024058C4EF6FF763540058495
:101AA000038C8488828B48F6FF752A404FF6FF45E9
:101AB0002A400D8820E00000002C01400004004076
:101AC00000080040000C00400010004000140040DE
:101AD00000340140004C01400050014000540140DE
:101AE00000180040001C0040002000400040014061
:101AF00000440140004801404FF6FF7606EA052504
:101B00002A434DF6FF752B400D8906EA05352B4318
:101B10004D8806EA05352B43FA4DA84202D0FA4D0E
:101B2000A84208D14BF6FF752C408D894FF6FF7601
:101B300006EA85152C4384808283CD88A0F8405026
:101B4000038470BD828B4FF2FF331A408283828BF5
:101B50004FF6FF7303EA01231A4382837047F0B5FF
:101B60000C461546002200210026078C4EF6FF7C0D
:101B700007EA0C070784828B018C4FF6FF7707EA90
:101B8000043640F6FF473A404FF6FF7707EA05274D
:101B90003A434FF6FF7707EA03373A43D94FB84243
:101BA0000ED0D94FB8420BD0B0F1804F08D0D74FEC
:101BB000B84205D0D64FB84202D0D64FB84206D16F
:101BC0004DF6FF77394046F48057394305E047F634
:101BD000FF57394044F48057394382830184F0BD74
:101BE000828B4FF6F3731A408283828B0A4382837F
:101BF0007047F0B50C461546002200210026078CE0
:101C00004FF6FF6C07EA0C070784828B018C4FF6B6
:101C1000FF7707EA04264FF60C773A404FF6FF7736
:101C200007EA03172F433A43B64FB8420ED0B64FD8
:101C3000B8420BD0B0F1804F08D0B44FB84205D0B5
:101C4000B34FB84202D0B34FB84206D14FF6FF5758
:101C5000394046F48077394305E04FF2FF57394069
:101C600044F48077394382830184F0BD028B4FF2C4
:101C7000FF331A400283028B4FF6FF7303EA0123FE
:101C80001A4302837047F0B50C4615460022002126
:101C90000026078C4FF6EF7C07EA0C070784028BBF
:101CA000018C4FF6FF7707EA041640F6FF473A40EB
:101CB0004FF6FF7707EA03373A434FF6FF7707EA15
:101CC00005273A438F4FB8420ED08F4FB8420BD002
:101CD000B0F1804F08D08D4FB84205D08C4FB8423C
:101CE00002D08C4FB84206D14FF6DF77394046F02C
:101CF0001007394305E04FF65F77394044F010078D
:101D0000394302830184F0BD028B4FF6F3731A400E
:101D10000283028B0A4302837047F0B50C461546D6
:101D200000220021068C4FF6FE773E400684028B8F
:101D3000018C4FF60C7632407E1C06EA03162E43C9
:101D40003243704EB0420ED06F4EB0420BD0B0F165
:101D5000804F08D06D4EB04205D06D4EB04202D0DB
:101D60006C4EB04206D14FF6FD76314044F001068C
:101D7000314305E04FF6F576314044F0010631433A
:101D800002830184F0BD70B505460C465D4885426E
:101D90000ED05D4885420BD0B5F1804F08D05B482E
:101DA000854205D05A48854202D05A48854200D122
:101DB00000E000BF208850B92389A28861882846A6
:101DC000FFF7ABFFE1882846FFF79EFF25E020885C
:101DD00004280AD12389A28861882846FFF753FF87
:101DE000E1882846FFF742FF17E0208808280AD13B
:101DF0002389A28861882846FFF7FBFEE1882846F0
:101E0000FFF7EEFE09E02389A28861882846FFF7E4
:101E1000A6FEE1882846FFF795FE70BD2DE9F0414A
:101E200005460C4600260127608808B9022600E016
:101E30000026A088012801D1022700E00127208880
:101E4000A0B92389A28861882846FFF766FFE18848
:101E50002846FFF759FF23893A4631462846FFF7BF
:101E600012FFE1882846FFF701FF13E02389A288CB
:101E700061882846FFF707FFE1882846FFF7F6FE4E
:101E800023893A4631462846FFF747FFE18828462E
:101E9000FFF73AFFBDE8F0810A884B881A438B8828
:101EA0001A43CB881A430B891A434B891A438B89EF
:101EB0001A43A0F8442070474FF6FF71818000213B
:101EC0000180C18041800172704700210180418002
:101ED0008180C180018141818181C1817047002160
:101EE00001804180012181800021C18001817047F2
:101EF0000021018041808180C180018141818181F7
:101F000070470000002C01400034014000040040F4
:101F100000080040000C004021B1028842F001029C
:101F2000028004E002884FF6FE731A400280704778
:101F300031B1B0F8442042F40042A0F8442005E05A
:101F4000B0F84420C2F30E02A0F8442070471AB142
:101F500083890B43838102E083898B4383817047AC
:101F60008182704741EA0203A0F8483070471AB1F5
:101F700083890B43838102E083898B43838170478C
:101F800001894FF6F8721140018170470A4600211D
:101F900001894FF68F73194011430181704730B5A5
:101FA00004460D4629462046FFF7F0FF208940F001
:101FB0000700208130BD2DE9F04104460D4616464C
:101FC0001F46602D06D13B46012231462046FFF7D1
:101FD0005AFE05E03B46012231462046FFF79DFEB2
:101FE00029462046FFF7D2FF208940F007002081D4
:101FF000BDE8F08130B50C4600210189C9B24FF629
:10200000FF7505EA0325154325432943018130BDAA
:102010002DE9F04105460E461746984600244346F2
:102020003A4631462846FFF7E5FF2C894FF6F8700F
:10203000044044F007044FF68F70044044F07004ED
:102040002C81BDE8F081F0B504460D4616461F46CA
:102050003B46324629462046FFF7CCFF208940F414
:1020600080402081F0BD0185828270470A460021B0
:1020700001884FF68F731940114301807047F0B506
:102080000C4615461E460021002200230189028BC2
:10209000038C4FF6F877394021434FF6FC473A401E
:1020A00040F201173A434FF6DD773B404FF6FF779A
:1020B00007EA06172F433B43018102830384F0BDE7
:1020C0000A460021018B4FF68F731940114301839B
:1020D00070470A460021018B48F6FF7319404FF6FE
:1020E000FF7303EA02231943018370470A46002164
:1020F000818B4FF68F7319401143818370470A46D5
:102100000021818B48F6FF7319404FF6FF7303EAF5
:10211000022319438183704721B1028842F0800273
:10212000028004E002884FF67F731A4002807047F5
:1021300021B1828842F00402828004E082884FF656
:10214000FB731A408280704721B1828842F00802F6
:10215000828004E082884FF6F7731A4082807047CD
:1021600021B1828842F00102828004E082884FF629
:10217000FE731A40828070470A460021018B4FF699
:10218000F77319401143018370470A460021018B00
:102190004FF2FF7319404FF6FF7303EA022319430E
:1021A000018370470A460021818B4FF6F77319406F
:1021B0001143818370470A460021818B4FF2FF73E0
:1021C00019404FF6FF7303EA0223194381837047D6
:1021D0000A460021018B4FF6FB731940114301831E
:1021E00070470A460021018B4FF6FF3319404FF626
:1021F000FF7303EA02231943018370470A46002153
:10220000818B4FF6FB7319401143818370470A4657
:102210000021818B4FF6FF3319404FF6FF7303EA1D
:1022200002231943818370470A460021018B4FF630
:102230007F7319401143018370470A460021018BC7
:10224000C1F30E014FF6FF7303EA02231943018322
:1022500070470A460021818B4FF67F731940114366
:10226000818370470A460021818BC1F30E014FF62E
:10227000FF7303EA02231943818370470A46002152
:10228000018C4FF6FD7319401143018470470A46D3
:102290000021018C4FF6F7731940114301847047F8
:1022A0000A460021018C4FF6DF7319404FF6FF7389
:1022B00003EA02131943018470470A460021018C86
:1022C0004FF67F7319404FF6FF7303EA0213194369
:1022D000018470470A460021018C4FF6FF531940D4
:1022E0004FF6FF7303EA02231943018470470A463D
:1022F0000021018C4FF2FF7319404FF6FF7303EA80
:1023000002231943018470470A460021018C4DF6CF
:10231000FF7319404FF6FF7303EA02331943018438
:10232000704730B5002301248C40A3B2048C9C4339
:102330000484048C02FA01F5ADB22C43048430BD50
:1023400030B5002304248C40A3B2048C9C43048445
:10235000048C02FA01F5ADB22C43048430BD70B593
:102360000346002000241846183001258D40ACB2E9
:102370001D8CA5431D8409B1082909D100EB61001A
:10238000056825F0700505600568154305600EE0D9
:102390000D1FC5F34E052844056825F4E04505608A
:1023A00005684FF6FF7606EA02263543056070BDE4
:1023B00021B1028842F00202028004E002884FF656
:1023C000FD731A400280704721B1028842F0040276
:1023D000028004E002884FF6FB731A4002807047C7
:1023E00021B1828842F08002828004E082884FF628
:1023F0007F731A408280704702884FF6F7731A4045
:10240000028002880A430280704782884FF68F73E9
:102410001A40828082880A438280704702894FF680
:10242000F8731A40028102890A43028170470289C7
:102430004FF67F731A40028102890A430281704776
:102440008184704781857047818670470187704716
:1024500081877047A0F84010704702884FF6FF430D
:102460001A40028002880A43028070470146888E23
:1024700070470146088F70470146888F70470146B4
:10248000B1F8400070470146888C70470146088DBE
:10249000704702460020138A0B400BB1012000E078
:1024A00000207047CA430282704730B502460020C0
:1024B00000230024158A05EA0103958905EA010431
:1024C00013B10CB1012000E0002030BDCA430282EC
:1024D0007047000010B50446BE48844208D101216F
:1024E000801400F005FB0021A01400F001FB16E0B1
:1024F000B948844208D10121001400F006FB0021F4
:10250000201400F002FB0AE0B448844207D1012104
:10251000C01300F0FAFA0021E01300F0F6FA10BD43
:1025200010B50022028802F441520B884C882343E4
:102530008C882343CC8823430C8923434C89234331
:102540008C892343CC8923431A430280838B4FF227
:10255000FF74234083830B8A038210BD2DE9F04F63
:1025600085B005460C464FF0000902274FF00008E1
:102570004FF0010B0026B246A88B4FF240010840F5
:10258000A88302202884B5F81C90A068022801D1F5
:1025900000BF38E0A08810B94FF0010B01E04FF008
:1025A000020B8D48854200D100E000BF684600F074
:1025B00018FADDF800A0E088B0F5007F0AD14FEAF4
:1025C0001A2000EB80004000A168B0FBF1F0401D34
:1025D00086B20BE04FEA4B10BAFBF0F000EB800044
:1025E0004000A168B0FBF1F0401D86B20A20B6FBA6
:1025F000F0F606F00108A6EB0800C0F34F074FF60F
:10260000FF7000EA0828022F01DBFF2F02DD0227FE
:102610004FF00008E08840EA080038432884A0888A
:10262000A1890843618808432188084340F4006079
:1026300040EA0909A5F81C9005B0BDE8F08F00211B
:10264000018041808180C180018141818181C1817E
:102650000721018270470021018041808180C18073
:102660000221816000218181704721B1028842F0FE
:102670004002028004E002884FF6BF731A400280D5
:10268000704721B1828B42F48062828304E0828BA6
:102690004FF6FF331A408283704730B50024002381
:1026A0000C110125A540ABB21AB185881D43858068
:1026B00002E085889D43858030BD1AB183880B4335
:1026C000838002E083888B438380704781817047D9
:1026D0000146888970474FF6FF62914204D0028814
:1026E00042F48072028004E002884FF6FF631A40D1
:1026F0000280704721B1828842F00402828004E0A7
:1027000082884FF6FB731A408280704702884FF22E
:10271000FF731A40028002880A43028070470188D2
:1027200041F480510180704721B1028842F4005287
:10273000028004E002884DF6FF731A400280704761
:1027400002460020012901D0108B00E0908A7047DA
:102750000146088A7047B1F5804F04D1028842F4DF
:102760008042028004E002884BF6FF731A40028028
:1027700070470246002013890B400BB1012000E096
:1027800000207047CA4302817047F0B5024600201E
:1027900000240023002501F00F070126BE40B4B23B
:1027A0000B1101269E40B3B2968806EA03051689EE
:1027B000264016B10DB1012000E00020F0BD10B59B
:1027C000002201F00F040123A3409AB2D3430381F6
:1027D00010BD00000030014000380040003C0040C7
:1027E000DF48006840F00100DD49086008464068A5
:1027F000DC490840DA49486008460068DA49084080
:10280000D74908600846006820F480200860084620
:10281000406820F4FE0048604FF41F008860704755
:10282000CF49096821F48031CD4A11601146096809
:1028300021F480211160B0F5803F03D0B0F5802FE6
:102840000ED106E0C649096841F48031C44A1160DE
:1028500007E0C349096841F4A021C14A116000E0C2
:1028600000BF00BF704710B50146002200230020C2
:102870004A11012A02D1BA4C236806E0022A02D189
:10288000B74C236A01E0B64C636A01F01F020124D1
:1028900094401C400CB1012000E0002010BD38B570
:1028A000002000900024002500BF3120FFF7DBFF4F
:1028B00005460098401C00900098B0F5A06F01D02C
:1028C000002DF2D03120FFF7CEFF08B1012400E047
:1028D0000024204638BD01460020A14A106820F09F
:1028E000F80040EAC10010607047A04908607047D6
:1028F000024600209A4B586820F47C1042EA0103FB
:102900001843974B586070479849086670470146CE
:102910000020934A506820F003000843506070473D
:102920008F48406800F00C007047014600208C4A38
:10293000506820F0F00008435060704701460020C6
:10294000874A506820F4E0600843506070470146B1
:102950000020834A506820F4605040EAC100506073
:10296000704729B17E4A527A02437D4B5A7204E085
:102970007B4A527A82437A4B5A7270477B49D831EC
:102980000860704701460020754A506820F44040B6
:102990000843506070470021714A20321170704A1C
:1029A00082F82010012802D004280AD104E0012175
:1029B0006B4A2032117005E00521694A20321170FE
:1029C00000E000BF00BF7047694908607047644974
:1029D000096A0143624A11627047654944390860D7
:1029E000704730B500210022002400235C4D6D6843
:1029F00005F00C0121B1042905D0082923D105E0F7
:102A00005C4D056022E05B4D05601FE0544D6D6834
:102A100005F47012524D6D6805F48034022505EB03
:102A200092421CB9544D554305600BE04C4D6D6806
:102A300005F400351DB1504D5543056002E04D4D84
:102A40005543056002E04B4D056000BF00BF444D9B
:102A50006D6805F0F0010909484D6B5C0568DD40C3
:102A600045603F4D6D6805F4E061090A434D6B5CBC
:102A70004568DD4085603A4D6D6805F46051C90ACE
:102A80003E4D6B5C4568DD40C560354D6D6805F4B5
:102A90004041890B3A4D6B5CC568B5FBF3F50561A8
:102AA00030BD29B12E4A526902432D4B5A6104E0D0
:102AB0002B4A526982432A4B5A61704729B1284AEE
:102AC00092690243264B9A6104E0254A9269824347
:102AD000234B9A61704729B1214AD2690243204BA6
:102AE000DA6104E01E4AD26982431D4BDA61704705
:102AF00029B11B4AD2680243194BDA6004E0184A34
:102B0000D2688243164BDA60704729B1144A1269C1
:102B10000243134B1A6104E0114A12698243104BBD
:102B20001A61704712494039086070470F49C864FC
:102B300070470B49C87170470948406A40F080707F
:102B400007494862704701460020054A92680A40DA
:102B50000AB1012000E000207047014988727047E7
:102B6000001002400000FFF8FFFFF6FE00004242A6
:102B70008004424200127A0000093D004500002016
:102B80005500002010B50446CC48844208D10121EC
:102B90000420FFF7ADFF00210420FFF7A9FF46E066
:102BA000C748844208D101210820FFF7A1FF002176
:102BB0000820FFF79DFF3AE0C248844208D1012176
:102BC0001020FFF795FF00211020FFF791FF2EE066
:102BD000BD48844208D101212020FFF789FF002150
:102BE0002020FFF785FF22E0B848844208D1012168
:102BF0004020FFF77DFF00214020FFF779FF16E01E
:102C0000B348844208D101218020FFF771FF0021E1
:102C10008020FFF76DFF0AE0AE48844207D1012112
:102C20008015FFF765FF0021A015FFF761FF10BDBC
:102C300010B501210846FFF75BFF00210120FFF7D7
:102C400057FF10BD2DE9F041024600250026002067
:102C500000230024002791F803C00CF00F0591F821
:102C600003C00CF0100CBCF1000F03D091F802C0AF
:102C70004CEA050591F800C0BCF1000F31D0146892
:102C800000202BE04FF0010C0CFA00F3B1F800C06B
:102C90000CEA03069E4220D183004FF00F0C0CFA81
:102CA00003F7BC4305FA03FC4CEA040491F803C0A3
:102CB000BCF1280F06D14FF0010C0CFA00FCC2F851
:102CC00014C00AE091F803C0BCF1480F05D14FF0E1
:102CD000010C0CFA00FCC2F810C0401C0828D1D32B
:102CE0001460B1F800C0BCF1FF0F34DD546800205F
:102CF0002EE000F1080C4FF0010808FA0CF3B1F8CF
:102D000000C00CEA03069E4221D183004FF00F0C55
:102D10000CFA03F7BC4305FA03FC4CEA040491F8EF
:102D200003C0BCF1280F05D100F1080C08FA0CF81B
:102D3000C2F8148091F803C0BCF1480F07D100F12C
:102D4000080C4FF0010808FA0CF8C2F81080401C7B
:102D50000828CED35460BDE8F0814FF6FF710180A2
:102D6000022181700421C1707047024600209368DF
:102D70000B400BB1012000E000207047014688683D
:102D800080B2704702460020D3680B400BB101208F
:102D900000E0002070470146C86880B270470161BA
:102DA0007047416170470AB1016100E041617047BD
:102DB000C16070474FF480320A4382618161826151
:102DC00082698269704702460020434B18684FF6BB
:102DD0008073184040EA021008433F4B1860704768
:102DE0003E49C8617047F0B50A460023002400211F
:102DF000002500F00046B6F1004F02D1364EF169D1
:102E000001E0354E7168C0F3034583B200F440160B
:102E1000B6F5401F08D121F070612F4E766826F07C
:102E200070662D4F7E6012E000F48016B6F5801FAC
:102E300006D1032606FA05F4A14341F0706106E0CD
:102E4000460D360103FA06F6B14341F0706122B136
:102E5000460D360103FA06F6314300F00046B6F19E
:102E6000004F02D11C4EF16101E01B4E7160F0BDBC
:102E700030B500228B071C0F0F2303FA04F2164B08
:102E800008338C1053F824309343134C08348D10BE
:102E900044F8253023468C1053F824308C07240F37
:102EA00000FA04F423430C4C08348D1044F8253008
:102EB00030BD0A49DC31086070470000000801405D
:102EC000000C0140001001400014014000180140B6
:102ED000001C014000200140000001400000204291
:102EE0002DE9F05F0546002092469B46884606463F
:102EF000814640241BE0284641464746224600F0D2
:102F000042F853465A46C01A914110D3114618460A
:102F1000224600F029F82D1A67EB01084F46224699
:102F20000120002100F020F817EB00094E41201E7F
:102F3000A4F10104DFDC484631462A464346BDE899
:102F4000F09F0000064C074D06E0E06840F00103EA
:102F500094E8070098471034AC42F6D3FDF7CAF85E
:102F6000B4320008D4320008202A04DB203A00FAE8
:102F700002F1002070479140C2F1200320FA03F3D0
:102F8000194390407047202A04DB203A21FA02F0CE
:102F90000021704721FA02F3D040C2F12002914093
:102FA00008431946704700000FB4054B10B503A93C
:102FB000044A029800F018F810BC5DF814FB0000F9
:102FC000890700085C00002002E008C8121F08C141
:102FD000002AFAD170477047002001E001C1121F9A
:102FE000002AFBD1704700002DE9FF4F8DB09B46B2
:102FF0000F460446002606E025280BD05A460F99B6
:103000009047641C761C20780028F5D111B030461A
:10301000BDE8F08F0025A8460122984900E005434D
:1030200014F8013F203B02FA03F00842F7D1207860
:103030002E2817D114F8010F45F004052A280ED0C8
:103040006FF02F022078A0F1300109290AD808EB8F
:10305000880102EB410100EB0108641CF2E757F81C
:10306000048B641C20786C280DD004DC4C2812D012
:103070006A2811D104E074280DD07A280CD10AE016
:1030800045F4001507E0617845F48015814202D1CE
:10309000641C05F58015641C2278692A45D008DC7B
:1030A000002AB3D0582A69D0632A10D0642A08D1E4
:1030B0003BE0702A67D0732A13D0752A5CD0782A37
:1030C0005CD010465A460F999047761CD3E017F80B
:1030D000040B8DF8000000208DF80100E946012066
:1030E00003E057F8049B4FF0FF3069074FF00005ED
:1030F00001D40AE06D1C45450DDA8542FADB19F86A
:1031000005100029F6D106E06D1C8542FCDB19F89C
:1031100005100029F8D12E4404E019F8010B5A4695
:103120000F9990476D1EF8D2A5E00A200021CDE945
:103130000801C5F3025002280DD001CFC117031EAC
:1031400071F100030DDA4FF0000CD0EB0C006CEBCA
:1031500001012D2308E0FF1D27F00707F7E8020112
:10316000EDE72B0504D52B238DF8283001233BE018
:10317000EB0739D02023F7E70A2000E010200021D8
:10318000CDE9080107E01020002145F00405CDE954
:1031900008014FF00808C5F3025002280FD001CFF4
:1031A00000214FF0000A2B071FD5702A0DD0DDE952
:1031B00008C38CF0100C5CEA030C0CD015E0FF1D6A
:1031C00027F00707F7E80201EBE740228DF82820F7
:1031D0004FF0010A0BE050EA010306D030238DF8CE
:1031E00028308DF8292002239A46582A04D024A298
:1031F0000DF120090B9209E026A2F9E7DDE9082389
:10320000FFF76EFE0B9B9B5C09F8013D50EA010243
:10321000F4D1ADEB090020300890680701D44FF0DD
:1032200001080899884502DDA8EB010000E00020B4
:103230008046002506E00AA85A46405D0F9990474F
:103240006D1C761C5545F6DB04E030205A460F997C
:103250009047761CB8F10001A8F10108F5DC05E003
:1032600019F8010B5A460F999047761C0899481E89
:1032700008900029F4DC641CC5E600000928010060
:1032800030313233343536373839616263646566DC
:10329000000000003031323334353637383941429E
:1032A00043444546000000003443101001344310ED
:1032B00010010000D432000800000020600000006F
:1032C000C82F00083433000860000020000400000C
:1032D000D82F0008000000000000A55A0280AA00B4
:1032E00000000000000000000000000000A24A04EE
:1032F00000000000000000000102030406070809A6
:1033000000000000000000000000000000000000BD
:1033100000000000000000000000000000010203A7
:10332000040102030406070809020406080000005D
:043330000000000099
:04000005080000ED02
:00000001FF
